:03000000020105F5
:0C010500787FE4F6D8FD75811302014CF0
:0802B90012027412020580FB21
:100274001202C81202981201D21202C112025CD2F6
:02028400AF22A7
:10020500B293E511700F751101FB7A0079087D60D5
:100215007CEA1202867B007A007908120236120205
:10022500B0EF600C20A60943870200000000000023
:0102350022A6
:03000300020016E2
:03001600B2A6325D
:03001300020019CF
:0100190032B4
:0300530002001A8E
:01001A0032B3
:03000B000201915E
:10019100C0E0C0F0C083C082C0D075D000C000C034
:1001A10001C002C003C004C005C006C007758A189B
:1001B100758CFC12001ED007D006D005D004D003E8
:1001C100D002D001D000D0D0D082D083D0F0D0E006
:0101D10032FB
:03001B0002002AB6
:01002A0032A3
:03002B00020027A9
:03002700C2CF3213
:03004F00D2A62214
:0302CE00C2A622A3
:0F029800759AFF7591FF75A1FF75D9FF0202CE10
:10025C005391FB43920475BB04E4F5BD75C7304361
:08026C00A80543A908D2A8224D
:10002E00C28C75FEC153FF7F43BB04D2A843870227
:10003E00000000000000000075FEC143FF80D28C5E
:01004E00228F
:04000E0002120000DA
:0602C800E4F512F513221B
:09001E000513E51370020512221E
:05000600AE12AF132251
:10028600120006EE8FF01200B9900002EC8DF0021B
:0202960000D88E
:0902A700120006EE8FF00200B90E
:10023600900002120081FFAEF0120056FDC3E513D6
:100246009DFDE51295F0FCC3ED9FEC9E7E004003FC
:060256007F01227F00225F
:1001D200758E07438901758A18758CFCC28CD2A969
:1001E200D28C438920758B10758D10C28ED2ABD202
:1001F2008EE4F5C9F5C875CB4475CA80C2CAD2ADC2
:03020200D2CA223B
:0702C10053A1FE43A201223C
:0902B00020A0037F01227F00223F
:100111000202B9E493A3F8E493A34003F68001F249
:1001210008DFF48029E493A3F85407240CC8C333EF
:10013100C4540F4420C8834004F456800146F6DFBE
:10014100E4800B010204081020408090000EE47E40
:10015100019360BCA3FF543F30E509541FFEE493B3
:10016100A360010ECF54C025E060A840B8E493A37A
:10017100FAE493A3F8E493A3C8C582C8CAC583CAA5
:10018100F0A3C8C582C8CAC583CADFE9DEE780BE5D
:0100120000ED
:10005600BB010A89828A83E0F5F0A3E02250068775
:10006600F009E71922BBFE07E3F5F009E319228937
:0B007600828A83E493F5F0740193226A
:10008100BB0110E58229F582E5833AF583E0F5F0BD
:10009100A3E0225009E92582F886F008E622BBFE9A
:1000A1000AE92582F8E2F5F008E222E5832AF583E0
:0800B100E993F5F0A3E99322A5
:1000B900BB010A89828A83F0E5F0A3F0225006F792
:0F00C90009A7F01922BBFE06F3E5F009F319228F
:1000D800F8BB0111E58229F582E5833AF583E8F05A
:1000E800E5F0A3F0225009E92582C8F608A6F02217
:0D00F800BBFE09E92582C8F2E5F008F222FE
:00000001FF
