:03000000020105F5
:0C010500787FE4F6D8FD75811302014CF0
:0802BC001202771201D280FB4F
:100277001202CB12029B1202061202C412025FD2B2
:02028700AF22A4
:1001D200B293E5117012751101FB7A0079087D6006
:1001E2007CEA1202891200277B007A007908120247
:1001F20039EF64014E700C438702000000000000DA
:0402020012004F2275
:03000300020019DF
:0100190032B4
:0300130002001ACE
:01001A0032B3
:0300530002002A7E
:01002A0032A3
:03000B000201915E
:10019100C0E0C0F0C083C082C0D075D000C000C034
:1001A10001C002C003C004C005C006C007758A189B
:1001B100758CFC12001ED007D006D005D004D003E8
:1001C100D002D001D000D0D0D082D083D0F0D0E006
:0101D10032FB
:03001B000200528E
:01005200327B
:03002B00020016BA
:03001600C2CF3224
:03002700D2A6223C
:03004F00C2A62224
:0F029B00759AFF7591FF75A1FF75D9FF02004F8E
:10025F005391FB43920475BB04E4F5BD75C730435E
:08026F00A80543A908D2A8224A
:10002E00C28C75FEC153FF7F43BB04D2A843870227
:10003E00000000000000000075FEC143FF80D28C5E
:01004E00228F
:04000E0002120000DA
:0602CB00E4F512F5132218
:09001E000513E51370020512221E
:05000600AE12AF132251
:10028900120006EE8FF01200B9900002EC8DF00218
:0202990000D88B
:0902AA00120006EE8FF00200B90B
:10023900900002120081FFAEF0120056FDC3E513D3
:100249009DFDE51295F0FCC3ED9FEC9E7E004003F9
:060259007F01227F00225C
:10020600758E07438901758A18758CFCC28CD2A934
:10021600D28C438920758B10758D10C28ED2ABD2CD
:100226008EE4F5C9F5C875CB4475CA80C2CAD2AD8D
:03023600D2CA2207
:0702C40053A1FE43A2012239
:0902B30020A0037F01227F00223C
:100111000202BCE493A3F8E493A34003F68001F246
:1001210008DFF48029E493A3F85407240CC8C333EF
:10013100C4540F4420C8834004F456800146F6DFBE
:10014100E4800B010204081020408090000EE47E40
:10015100019360BCA3FF543F30E509541FFEE493B3
:10016100A360010ECF54C025E060A840B8E493A37A
:10017100FAE493A3F8E493A3C8C582C8CAC583CAA5
:10018100F0A3C8C582C8CAC583CADFE9DEE780BE5D
:0100120000ED
:10005600BB010A89828A83E0F5F0A3E02250068775
:10006600F009E71922BBFE07E3F5F009E319228937
:0B007600828A83E493F5F0740193226A
:10008100BB0110E58229F582E5833AF583E0F5F0BD
:10009100A3E0225009E92582F886F008E622BBFE9A
:1000A1000AE92582F8E2F5F008E222E5832AF583E0
:0800B100E993F5F0A3E99322A5
:1000B900BB010A89828A83F0E5F0A3F0225006F792
:0F00C90009A7F01922BBFE06F3E5F009F319228F
:1000D800F8BB0111E58229F582E5833AF583E8F05A
:1000E800E5F0A3F0225009E92582C8F608A6F02217
:0D00F800BBFE09E92582C8F2E5F008F222FE
:00000001FF
